{
  "contractName": "MyWallet",
  "abi": [
    {
      "constant": false,
      "inputs": [],
      "name": "kill",
      "outputs": [],
      "payable": false,
      "stateMutability": "nonpayable",
      "type": "function"
    },
    {
      "payable": true,
      "stateMutability": "payable",
      "type": "fallback"
    },
    {
      "anonymous": false,
      "inputs": [
        {
          "indexed": false,
          "name": "indexed_from",
          "type": "address"
        },
        {
          "indexed": false,
          "name": "_amount",
          "type": "uint256"
        }
      ],
      "name": "recievedFunds",
      "type": "event"
    },
    {
      "anonymous": false,
      "inputs": [
        {
          "indexed": true,
          "name": "_from",
          "type": "address"
        },
        {
          "indexed": false,
          "name": "_to",
          "type": "address"
        },
        {
          "indexed": false,
          "name": "_reason",
          "type": "string"
        },
        {
          "indexed": false,
          "name": "proposal_id",
          "type": "uint256"
        }
      ],
      "name": "proposalRecieved",
      "type": "event"
    },
    {
      "anonymous": false,
      "inputs": [
        {
          "indexed": false,
          "name": "value",
          "type": "bool"
        }
      ],
      "name": "confirmedProposal",
      "type": "event"
    },
    {
      "constant": false,
      "inputs": [
        {
          "name": "_to",
          "type": "address"
        },
        {
          "name": "_value",
          "type": "uint256"
        },
        {
          "name": "_reason",
          "type": "string"
        }
      ],
      "name": "spendMoneyOn",
      "outputs": [
        {
          "name": "",
          "type": "uint256"
        }
      ],
      "payable": false,
      "stateMutability": "nonpayable",
      "type": "function"
    },
    {
      "constant": false,
      "inputs": [
        {
          "name": "proposal_id",
          "type": "uint256"
        }
      ],
      "name": "confirmProposal",
      "outputs": [
        {
          "name": "",
          "type": "bool"
        }
      ],
      "payable": false,
      "stateMutability": "nonpayable",
      "type": "function"
    }
  ],
  "bytecode": "0x6080604052336000806101000a81548173ffffffffffffffffffffffffffffffffffffffff021916908373ffffffffffffffffffffffffffffffffffffffff160217905550610934806100536000396000f300608060405260043610610057576000357c0100000000000000000000000000000000000000000000000000000000900463ffffffff168063192997e7146100ce57806341c0e1b514610175578063f4a4f4d21461018c575b60003411156100cc577ffb5cb5fc5900f14be0f619816129d1490c275a13734b28ae77072a2f5d676f573334604051808373ffffffffffffffffffffffffffffffffffffffff1673ffffffffffffffffffffffffffffffffffffffff1681526020018281526020019250505060405180910390a15b005b3480156100da57600080fd5b5061015f600480360381019080803573ffffffffffffffffffffffffffffffffffffffff16906020019092919080359060200190929190803590602001908201803590602001908080601f01602080910402602001604051908101604052809392919081815260200183838082843782019150505050505091929192905050506101d1565b6040518082815260200191505060405180910390f35b34801561018157600080fd5b5061018a6105bd565b005b34801561019857600080fd5b506101b76004803603810190808035906020019092919050505061064e565b604051808215151515815260200191505060405180910390f35b60008060009054906101000a900473ffffffffffffffffffffffffffffffffffffffff1673ffffffffffffffffffffffffffffffffffffffff163373ffffffffffffffffffffffffffffffffffffffff161415610364578373ffffffffffffffffffffffffffffffffffffffff166108fc849081150290604051600060405180830381858888f1935050505015801561026e573d6000803e3d6000fd5b503373ffffffffffffffffffffffffffffffffffffffff167fcc73649002937fcaa38efe025f210229ba95e92d93e8110847af38176ac1560a85846000604051808473ffffffffffffffffffffffffffffffffffffffff1673ffffffffffffffffffffffffffffffffffffffff16815260200180602001838152602001828103825284818151815260200191508051906020019080838360005b83811015610323578082015181840152602081019050610308565b50505050905090810190601f1680156103505780820380516001836020036101000a031916815260200191505b5094505050505060405180910390a26105b5565b60026000815480929190600101919050555060a0604051908101604052803373ffffffffffffffffffffffffffffffffffffffff1681526020018573ffffffffffffffffffffffffffffffffffffffff1681526020018481526020018381526020016000151581525060016000600254815260200190815260200160002060008201518160000160006101000a81548173ffffffffffffffffffffffffffffffffffffffff021916908373ffffffffffffffffffffffffffffffffffffffff16021790555060208201518160010160006101000a81548173ffffffffffffffffffffffffffffffffffffffff021916908373ffffffffffffffffffffffffffffffffffffffff160217905550604082015181600201556060820151816003019080519060200190610496929190610863565b5060808201518160040160006101000a81548160ff0219169083151502179055509050503373ffffffffffffffffffffffffffffffffffffffff167fcc73649002937fcaa38efe025f210229ba95e92d93e8110847af38176ac1560a8584600254604051808473ffffffffffffffffffffffffffffffffffffffff1673ffffffffffffffffffffffffffffffffffffffff16815260200180602001838152602001828103825284818151815260200191508051906020019080838360005b8381101561056f578082015181840152602081019050610554565b50505050905090810190601f16801561059c5780820380516001836020036101000a031916815260200191505b5094505050505060405180910390a260025490506105b6565b5b9392505050565b6000809054906101000a900473ffffffffffffffffffffffffffffffffffffffff1673ffffffffffffffffffffffffffffffffffffffff163373ffffffffffffffffffffffffffffffffffffffff16141561064c576000809054906101000a900473ffffffffffffffffffffffffffffffffffffffff1673ffffffffffffffffffffffffffffffffffffffff16ff5b565b6000806000809054906101000a900473ffffffffffffffffffffffffffffffffffffffff1673ffffffffffffffffffffffffffffffffffffffff163373ffffffffffffffffffffffffffffffffffffffff16141561085d57600160008481526020019081526020016000209050600073ffffffffffffffffffffffffffffffffffffffff168160000160009054906101000a900473ffffffffffffffffffffffffffffffffffffffff1673ffffffffffffffffffffffffffffffffffffffff1614151561085b57600115158160040160009054906101000a900460ff16151514151561085a5760018160040160006101000a81548160ff0219169083151502179055508060010160009054906101000a900473ffffffffffffffffffffffffffffffffffffffff1673ffffffffffffffffffffffffffffffffffffffff166108fc82600201549081150290604051600060405180830381858888f19350505050156107f8577f3ccff84b9d1210fe19f7354953ca5d87b151411831473b176e434bb3574bc1246001604051808215151515815260200191505060405180910390a16001915061085c565b60008160040160006101000a81548160ff0219169083151502179055507f3ccff84b9d1210fe19f7354953ca5d87b151411831473b176e434bb3574bc1246000604051808215151515815260200191505060405180910390a16000915061085c565b5b5b5b50919050565b828054600181600116156101000203166002900490600052602060002090601f016020900481019282601f106108a457805160ff19168380011785556108d2565b828001600101855582156108d2579182015b828111156108d15782518255916020019190600101906108b6565b5b5090506108df91906108e3565b5090565b61090591905b808211156109015760008160009055506001016108e9565b5090565b905600a165627a7a72305820465de72e675d7d316a0fc0f3af2b95fce63c2c3307b5abc0743daa807d2052c70029",
  "source": "pragma solidity ^0.4.19;\n\nimport \"./mortal.sol\";\ncontract MyWallet is mortal\n{\n    event recievedFunds(address indexed_from,uint256 _amount);\n    event proposalRecieved(address indexed _from,address _to,string _reason,uint proposal_id);\n    event confirmedProposal(bool value);\n    struct Proposal\n    {\n        address _from;\n        address _to;\n        uint256 value;\n        string reason;\n        bool sent;\n    }\n    mapping(uint => Proposal) m_proposals;\n    uint proposal_counter;\n    function spendMoneyOn(address _to,uint256 _value,string _reason) public returns(uint)\n    {\n        if(msg.sender==owner)\n        {\n           _to.transfer(_value);\n           emit proposalRecieved(msg.sender,_to,_reason,0);\n        }\n        else\n        {\n            proposal_counter++;\n            m_proposals[proposal_counter]=Proposal(msg.sender,_to,_value,_reason,false);\n            emit proposalRecieved(msg.sender,_to,_reason,proposal_counter);\n            return proposal_counter;\n        }\n    }\n\n    function() payable public {\n        if(msg.value>0)\n        {\n            emit recievedFunds(msg.sender,msg.value);\n        }\n    }\n    function confirmProposal(uint proposal_id) onlyOwner public returns(bool)\n    {\n        Proposal storage proposal=m_proposals[proposal_id];\n        if(proposal._from!=address(0))\n        {\n            if(proposal.sent!=true)\n            {\n                proposal.sent=true;\n                if(proposal._to.send(proposal.value))\n                {\n                    emit confirmedProposal(true);\n                    return true;\n                }\n                else\n                {\n                    proposal.sent=false;\n                    emit confirmedProposal(false);\n                    return false;\n                }\n            }\n        }\n    }\n}\n",
  "sourcePath": "/home/mukul/TruffleProject/contracts/MyWallet.sol",
  "compiler": {
    "name": "solc",
    "version": "0.4.24+commit.e67f0147.Emscripten.clang"
  },
  "schemaVersion": "2.0.1",
  "updatedAt": "2018-09-01T13:55:18.379Z"
}